:020000040800F2
:100000000050002021020008270200082B020008EF
:100010009D020008A1020008E9020008000000009B
:100020000000000000000000000000003103000894
:10003000350300080000000039030008F10900083A
:100040004D0300084D0300084D0300084D03000850
:100050004D0300084D0300084D0300084D03000840
:100060004D0300084D0300084D0300084D03000830
:100070004D0300084D0300084D0300084D03000820
:100080004D0300084D0300084D0300084D03000810
:100090004D0300084D0300084D0300084D03000800
:1000A0004D0300084D0300084D0300084D030008F0
:1000B0004D0300084D0300084D0300084D030008E0
:1000C0004D0300084D0300084D030008E109000836
:1000D0004D0300084D0300084D0300084D030008C0
:1000E0004D0300084D0300084D0300080000000008
:1000F0000000000000000000000000000000000000
:1001000000000000000000005FF808F100B583B0B7
:1001100000F0AAF9304B314A1360314A1360314B79
:10012000314A32498B4204D21168196004330432D7
:10013000F7E72A4B1A682E4B9A4200D0FEE7284B6D
:100140001A682C4B9A42F9D1234B2B4A13602B4A45
:1001500013602B4B02E000221A600433294A9342B9
:10016000F9D3254B1B6813B9244B1B6803B1FEE779
:1001700000F086F9694601A800F022F9224C234BD1
:10018000E41AA4100025AC4214DC214C214BE41AE3
:10019000A4100025AC4213DC0099019800F0CAFCC1
:1001A00005461D4C1D4BE41AA410002C0EDC2846FD
:1001B00000F0E2F8154B53F8253098470135E2E797
:1001C000144B53F8253098470135E3E7013C134BB6
:1001D00053F824309847E8E7BABADECA0000002096
:1001E000840000200000002064B500088800002082
:1001F0007856341232547698880000202801002066
:10020000880000202C0100207803000878030008F3
:1002100078030008780300087803000878030008D2
:1002200008B5FFF773FF00BEFEE71EF0040F0CBF1A
:10023000EFF30880EFF309807146414A10472DE93A
:10024000F04182B004468846124B5E6B9F6B9D6AFC
:100250001B6B13F0020F03D00E4BDB6A002B0CDB81
:100260000D4800F0B5F8CDF800803B4632462946EF
:10027000204600F009F900BEFEE74BF6AB6100F046
:100280007DF90028ECD0034B4FF00042DA6202B057
:10029000BDE8F08100ED00E00415000800BEFEE7B7
:1002A0001EF0040F0CBFEFF30880EFF309807146D6
:1002B000244A10472DE9F04182B004468846084B95
:1002C0005E6B9F6B9D6A074800F082F8CDF8008056
:1002D0003B4632462946204600F0D6F800BEFEE7EF
:1002E00000ED00E0141500081EF0040F0CBFEFF342
:1002F0000880EFF309807146134A10472DE9F04159
:1003000082B004468846084B5E6B9F6B9D6A074827
:1003100000F05EF8CDF800803B4632462946204684
:1003200000F0B2F800BEFEE700ED00E02015000886
:1003300000BEFEE700BEFEE700BEFEE7704700001D
:100340003F020008B5020008FD02000800BEFEE7FB
:1003500064B50008000000208800002064B5000893
:100360000000000000000000880000202C01002098
:08037000000000000000000085
:10037800FEE7000008B503460C4A12685AB10B4A5A
:100388001068033323F003030344094A934206D851
:10039800064A136008BD054A06491160EFE700F0F8
:1003A800EFFB0C2303604FF0FF30F3E78C000020D5
:1003B800004C00202C01002001230360014B0B603E
:1003C800704700BF040000200FB400B583B004AB31
:1003D80053F8042B01938021064800F003FC002801
:1003E80003DD0146034800F037F803B05DF804EB7D
:1003F80004B07047940000202DE9F04385B004460E
:100408000F4643560BB10E461EE0042528462146EA
:10041800ABBE0446384605B0BDE8F08314F9011BAD
:1004280004AA1A4402F8101C0133AB42F6D304AAFA
:100438001344002203F8102C4FF00408E946404604
:100448004946ABBE8046761B002EE3D03546102EBB
:1004580028BF10250023E8E708B5FFF7CDFF08BD42
:1004680008B500F0FDF8024A024B9A6008BD00BFCB
:100478000000000800ED00E008B500F019F908BD1B
:10048800F8B504460D4617461E462748FFF79CFF59
:1004980021682648FFF798FF61682548FFF794FF11
:1004A800A1682448FFF790FFE1682348FFF78CFF15
:1004B80021692248FFF788FF61692148FFF784FF17
:1004C800A1692048FFF780FFE1691F48FFF77CFF1B
:1004D8001E48FFF779FF29461D48FFF775FF1D4C99
:1004E800E16A1D48FFF770FF216B1C48FFF76CFF9E
:1004F800E16B1B48FFF768FF15F0800F0AD115F470
:10050800004F0CD11748FFF75FFF06991648FFF711
:100518005BFFF8BD39461548FFF756FFEFE7314650
:100528001348FFF751FFEDE7E8130008F813000838
:1005380008140008181400082814000838140008C3
:1005480048140008581400086814000878140008B3
:100558008414000800ED00E094140008A4140008B6
:10056800B4140008E4140008EC140008C4140008CB
:10057800D414000883691A888A4201D00020704781
:100588000268033A012A03D80233836101207047C5
:100598000020704782B00023019300932C4A13680F
:1005A80043F4803313602A4B1B6803F40033009331
:1005B800019B01330193009B1BB9019BB3F5A06F0D
:1005C800F1D1234B1B6813F4003F06D0012300939D
:1005D800009B012B04D002B0704700230093F7E77B
:1005E8001C4B1A6842F010021A601A6822F00302C3
:1005F8001A601A6842F002021A60A3F580535A681A
:100608005A605A685A605A6842F480625A605A6856
:1006180022F47C125A605A6842F4E8125A601A6846
:1006280042F080721A600A4B1B6813F0007FFAD000
:10063800074B5A6822F003025A605A6842F00202D5
:100648005A60034B5B6803F00C03082BF9D1C2E72F
:10065800001002400020024008B5FFF79BFF08BDCC
:1006680008B5104B1A6842F001021A6059680E4A20
:100678000A405A601A6822F0847222F480321A60A2
:100688001A6822F480221A605A6822F4FE025A601C
:100698004FF41F029A60FFF7DFFF044B4FF0006230
:1006A8009A6008BD001002400000FFF800ED00E06D
:1006B8001F4B5B6803F00C03042B15D0082B17D0D5
:1006C8001BB11C4B1C4A1A6002E01A4B1A4A1A60EA
:1006D800174B5B68C3F30313184AD35CDAB21549A6
:1006E8000B68D3400B607047124B134A1A60EFE750
:1006F8000F4A53685268C3F38343023312F4803FAE
:100708000AD00B4A526812F4003F0BD00C4A02FB85
:1007180003F3084A1360DBE7094A02FB03F3054ABF
:100728001360D5E7044A02FB03F3024A1360CFE7DC
:10073800001002401C00002000127A000C0000206B
:1007480000093D0010B5044600F056F9002000F0FD
:1007580065F9204600F056F900F06CF90028FBD046
:1007680010BD000010B4012827D018B1022847D0C6
:1007780010BC7047072912D90F29F9D8A1F108042C
:10078800E4B2314B5968A4000F20A04021EA0001CF
:100798005960586802FA04F101435960E8E72A4BA6
:1007A800186889000F248C4020EA04001860186833
:1007B80002FA01F101431960DAE7072912D90F2972
:1007C800D6D8A1F10800C0B2204B596880000F2488
:1007D800844021EA040159605C6802FA00F121436F
:1007E8005960C5E7194B186889000F248C4020EA26
:1007F80004001860186802FA01F101431960B7E7AC
:10080800072912D90F29B3D8A1F10803DBB2104880
:1008180041689B000F249C4021EA04014160446820
:1008280002FA03F121434160A2E7094B18688900E5
:100838000F248C4020EA04001860186802FA01F1BD
:100848000143196094E700BF00080140000C014013
:1008580000100140012817D010B1022827D0704796
:10086800012A0AD0002A2DD11A48C368012202FAA7
:1008780001F123EA0101C16070471648C36802FA12
:1008880001F11943C1607047012A09D0D2B9124851
:10089800C368012202FA01F123EA0101C16070472D
:1008A8000D48C36802FA01F11943C1607047012A73
:1008B80009D03AB90948C368012202FA01F123EACA
:1008C8000101C16070470548C36802FA01F1194384
:1008D800C160704700080140000C01400010014051
:1008E8000E4B5A6842F001025A605A6822F002021E
:1008F8005A601A6842F480321A600023074A126864
:1009080012F4003F04D1064A934201D80133F5E7B7
:10091800024A136823F40023136070470010024052
:100928009F86010001280BD010B1022810D0704713
:100938000B484369012202FA01F1194341617047EA
:100948000748C369012202FA01F11943C1617047DE
:1009580003488369012202FA01F119438161704752
:1009680000100240144B1A6842F001021A601A681B
:1009780042F002021A601A6842F004021A601A6809
:1009880022F080021A601A6822F400721A601A684B
:1009980022F400621A6000225A601A6822F03802B3
:1009A8001204120C1A601A6842F008021A601A68D7
:1009B80042F040021A60704700300140054BD86091
:1009C800044B9B6813F0800FFAD1024BD868C0B271
:1009D800704700BF0030014008B5024B1B689847BC
:1009E80008BD00BF2001002008B5024B1B689847CE
:1009F80008BD00BF24010020014B02221A60704785
:100A080010E000E00138044B586000229A601A6830
:100A180042F001021A60704710E000E0044B1A68C7
:100A280022F002021A601A6842EA40001860704711
:100A380010E000E0024B1868C0F30040704700BFA8
:100A480010E000E010B50446002202211046FFF72E
:100A580001FF2046FFF7B2FF10BD10B50446012282
:100A680002210020FFF7F6FE2046FFF7A7FF10BD82
:100A780010B5002201211046FFF7ECFE4FF47A7002
:100A8800FFF760FE012211460020FFF7E3FE0F4C3E
:100A98002046FFF757FE1120FFF7D4FF2046FFF747
:100AA80051FE3A20FFF7CEFF0520FFF7D6FF292099
:100AB800FFF7C8FF4FF47A70FFF744FE3620FFF7C0
:100AC800C1FFC020FFF7C9FF10BD00BFF0490200F9
:100AD800F8B5064600270EE036F8025B280AFFF74D
:100AE800BCFFE8B2FFF7B9FF0134E4B214F0800F9D
:100AF800F2D00137FFB29F2F16D82A20FFF7A2FFA6
:100B08000020FFF7AAFF0020FFF7A7FF2B20FFF721
:100B180099FF0020FFF7A1FF3846FFF79EFF2C2022
:100B2800FFF790FF0024E1E7F8BD000008B5FFF7E4
:100B3800D7FE02210846FFF7F5FE0C210220FFF739
:100B4800F1FE092207210020FFF70CFE09220521EA
:100B58000020FFF707FE012211460020FFF702FEE2
:100B6800012202210020FFF7FDFDFFF7FBFEFFF742
:100B78007FFF0248FFF7ACFFFEE700BF3015000813
:100B8800014B1868704700BF2000002030B5141EC4
:100B980005469BB0184605DA8B234FF0FF302B60D3
:100BA8001BB030BD4FF40273ADF80C300CBF2346B8
:100BB80004F1FF33029305934FF6FF7300910491FC
:100BC800ADF80E3002461E9B6946284600F072F8C2
:100BD800431CBCBF8B232B60002CE1D00022009B60
:100BE8001A70DDE707B5009313460A460146034825
:100BF8000068FFF7CBFF03B05DF804FB200000207E
:100C08002DE9F0478E6882469E420C4690469946EA
:100C180037D88A8912F4906F31D002232568096980
:100C28006F1A656905EB450595FBF3F509F10103B5
:100C38003B449D4238BF1D46530530D5294600F038
:100C480035FB064650B90C234FF0FF30CAF8003088
:100C5800A38943F04003A381BDE8F0873A462169A0
:100C680000F0B4FAA38923F4906343F08003A381CE
:100C780026613E4426604E466561ED1BA5604E45E3
:100C880000D94E4632464146206800F0AAFAA368C9
:100C980000209B1BA36023681E442660DCE72A46CD
:100CA80000F05EFB06460028E2D12169504600F0BC
:100CB800B1FAC8E72DE9F04F9DB003938B898046C0
:100CC8001D060C4616460FD50B696BB9402100F07E
:100CD800EDFA2060206128B90C23C8F800304FF0E5
:100CE800FF30C7E0402363610023099320238DF878
:100CF800293030234FF0010B8DF82A3037463D4616
:100D080015F8013B0BB1252B3ED1B7EB060A0BD0EA
:100D18005346324621464046FFF772FF013000F045
:100D2800A480099B534409933B78002B00F09D80D5
:100D380000234FF0FF32CDE90523049307938DF884
:100D480053301A932F46052217F8011B4F4800F01D
:100D58002FFA049BD0B9D90644BF20228DF853201E
:100D68001A0744BF2B228DF853202A782A2A15D037
:100D78002F4600200A25079A394611F8013B303BD7
:100D8800092B4DD9B8B10FE02F46B8E73F4A3D4689
:100D9800801A0BFA00F018430490D3E7039A111D48
:100DA80012680391002A01DB079204E0524243F0E3
:100DB8000203079204933B782E2B0CD17B782A2BC5
:100DC80033D1039B02371A1D1B680392002BB8BF4F
:100DD8004FF0FF3305932E4D03223978284600F053
:100DE800E7F938B14023401B03FA00F0049B0137B0
:100DF800034304933978062226487E1C8DF8281070
:100E080000F0D6F9002838D0234B13BB039B0733D7
:100E180023F0070308330393099B4B4409936DE7B9
:100E280005FB023201200F46A6E700230A251946D2
:100E380001370593384610F8012B303A092A03D9AF
:100E4800002BC8D00591C6E705FB01210123074601
:100E5800F0E703AB00932246104B04A94046AFF3DA
:100E68000080B0F1FF3F8146D6D1A3895B063FF5EC
:100E780036AF09981DB0BDE8F08F03AB009322464A
:100E8800064B04A9404600F081F8EAE730B50008AF
:100E980036B500083AB5000800000000090C000843
:100EA8002DE9F04791461F468A680B69064693422A
:100EB800B8BF1346C9F8003091F843200C46DDF856
:100EC800208012B10133C9F800302368990642BF67
:100ED800D9F800300233C9F80030256815F0060546
:100EE80007D104F1190AE368D9F800209B1AAB422C
:100EF80029DC94F843302268003318BF0123920696
:100F08002ED404F1430239463046C047013021D07F
:100F18002368E56803F00603042B18BF0025D9F8F9
:100F280000204FF0000908BFAD1AA368226908BF66
:100F380025EAE5759342C4BF9B1AED181A344D454E
:100F48001AD1002008E00123524639463046C047EE
:100F5800013003D14FF0FF30BDE8F0870135C2E71B
:100F68003020E11881F843005A1C94F845102244B7
:100F7800023382F84310C4E701232246394630463B
:100F8800C0470130E6D009F10109D8E72DE9F0435F
:100F980001F1430C0C46097E85B06E2917460646BA
:100FA80098460C9A00F0B38022D8632936D00AD824
:100FB800002900F0B980582900F0838004F1420527
:100FC80084F8421032E0642901D06929F6D12068FA
:100FD8001368050603F104012AD51B681160002B6C
:100FE80003DA2D225B4284F843206F480A2239E055
:100FF800732900F09D8008D86F2920D07029DDD191
:10100800236843F02003236003E0752917D078296B
:10101800D4D17823654884F8453055E0136804F145
:101028004205191D1B68116084F8423001238CE0C9
:101038001B6810F0400F116018BF1BB2CFE7136890
:101048002568181D1060280601D51B6802E068068F
:10105800FBD51B886F2914BF0A2208225248002199
:1010680084F843106568002DA560C0F2958021685A
:1010780021F004012160002B3DD1002D40F08E802D
:101088006546082A0BD12368DB0708D523696268FF
:101098009A42DEBF302305F8013C05F1FF35ACEB81
:1010A80005032361CDF800803B4603AA214630465C
:1010B800FFF7F6FE01304DD14FF0FF3005B0BDE827
:1010C800F083394884F84510136821681D1D1B6892
:1010D80015600A060BD5CA0744BF41F020012160FC
:1010E8001BB9226822F0200222601022B7E74D06C1
:1010F80048BF9BB2EFE76546B3FBF2F102FB113341
:10110800C35C05F8013D0B460029F5D1B9E7136822
:101118002568181D6169106028061B6801D51960CB
:1011280002E06A06FBD51980002365462361B9E70A
:101138001368191D11601D6862680021284600F0B7
:1011480037F808B1401B606063682361002384F8A6
:101158004330A7E723692A4639463046C04701305D
:10116800AAD023689B0713D4E068039B9842B8BFB2
:101178001846A3E701234A4639463046C04701309E
:101188009AD00135E368039A9B1AAB42F2DCEBE78D
:10119800002504F11909F5E7002BACD1037804F117
:1011A800420584F842306CE741B5000852B50008A2
:1011B80010B5C9B202449042034601D1002303E0AE
:1011C8001C7801308C42F6D1184610BD10B5431E6C
:1011D8000A44914200D110BD11F8014B03F8014FA8
:1011E800F7E7884210B501EB020307D8421E99427F
:1011F8000AD011F8014B02F8014FF8E78342F5D9FC
:101208008118D21AD34200D110BD13F8014D01F84C
:10121800014DF7E738B50546002943D051F8043C9D
:101228000C1F002BB8BFE41800F0D0F81E4A136852
:10123800104633B9636014602846BDE8384000F0B2
:10124800C6B8A3420BD921686218934201BF1A6835
:101258005B685218226063600460EDE713465A68C1
:101268000AB1A242FAD919685818A0420BD12068CD
:101278000144581882421960DED11068526801444E
:1012880019605A60D8E702D90C232B60D4E720688C
:1012980021188A4201BF11685268091821606260EA
:1012A8005C60C9E738BD00BF1401002070B5CD1CD3
:1012B80025F0030508350C2D38BF0C25002D0646F2
:1012C80001DBA94203D90C233360002070BD00F074
:1012D8007DF8214A1468214691B9204C23681BB92E
:1012E800304600F063F820602946304600F05EF88A
:1012F800431C24D10C233046336000F068F8E4E73F
:101308000B685B1B18D40B2B0FD90B60CC18CD5076
:10131800304600F05CF804F10B00231D20F00700B4
:10132800C31AD3D05A42E250D0E74B688C4216BF5A
:10133800636013600C46EBE70C464968CCE7C41CB5
:1013480024F00304A04205D0211A304600F02EF8FC
:101358000130CFD02560DBE7140100201801002000
:10136800F8B5074614460E4621B9BDE8F8401146BF
:10137800FFF79CBF22B9FFF74DFF25462846F8BD69
:1013880000F026F8A0420FD221463846FFF78EFF1C
:1013980005460028F2D031462246FFF717FF3146AE
:1013A8003846FFF737FFE9E73546E7E738B5002362
:1013B800054C054608462360FEF7DCFF431C02D1B6
:1013C800236803B12B6038BD1C01002070477047AB
:1013D80051F8043C181F002BBCBF0B58C0187047AD
:1013E800537461636B206672616D653A0A00000090
:1013F800205230203D2020253038580A00000000B7
:10140800205231203D2020253038580A00000000A5
:10141800205232203D2020253038580A0000000094
:10142800205233203D2020253038580A0000000083
:1014380020523132203D20253038580A0000000063
:10144800204C52203D2020253038580A000000004A
:10145800205043203D2020253038580A0000000045
:1014680020505352203D20253038580A00000000F3
:101478004653522F4641523A0A0000002043465331
:1014880052203D2020253038580A00002048465375
:1014980052203D2020253038580A00002044465369
:1014A80052203D2020253038580A0000204146535C
:1014B80052203D2020253038580A0000204D4D4646
:1014C8004152203D20253038580A0000204246412C
:1014D80052203D2020253038580A00004D6973639A
:1014E8000A000000204C522F4558435F524554557E
:1014F800524E3D20253038580A0000005B48617282
:10150800644661756C745D0A000000005B42757387
:101518004661756C745D0A005B5573616765466169
:10152800756C745D0A000000B71BB71BB71BB71BAF
:10153800B71BB71BB71BB71BB71BB71BB71BB71B13
:10154800B71BB71BB71BB71BB71BB71BB71BB71B03
:10155800B71BB71BB71BB71BB71BB71BB71BB71BF3
:10156800B71BB71BB71BB71BB71BB71BB71BB71BE3
:10157800B71BB71BB71BB71BB71BB71BB71BB71BD3
:10158800B71BB71BB71BB71BB71BB71BB71BB71BC3
:10159800B71BB71BB71BB71B971BB71BB71BB71BD3
:1015A800B71BB71BB71BB71BB71BB71BB71BB71BA3
:1015B800B71BB71BB71B971BB71BB71BB71BB71BB3
:1015C800B71BB71BB71BB71BB71BB71BB71BB71B83
:1015D800B71BB71BB71BB71BB71BB71BB71BB71B73
:1015E800B71BB71BB71BB71BB71BB71BB71BB71B63
:1015F800B71BB71BB71BB71BB71BB71BB71BB71B53
:10160800B71BB71BB71BB71BB71BB71BB71BB71B42
:10161800B71BB71BB71BB71BB71BB71BB71BB71B32
:10162800B71BB71BB71BB71BB71BB71BB71BB71B22
:10163800B71BB71BB71BB71BB71BB71BB71BB71B12
:10164800B71BB71BB71BB71BB71BB71BB71BB71B02
:10165800B71BB71BB71BB71BB71BB71BB71BB71BF2
:10166800B71BB71BB71BB71BB71BB71BB71BB71BE2
:10167800B71BB71BB71BB71BB71BB71BB71BB71BD2
:10168800B71BB71BB71BB71BB71BB71BB71BB71BC2
:10169800B71BB71BB71BB71BB71BB71BB71BB71BB2
:1016A800B71BB71BB71BB71BB71BB71BB71BB71BA2
:1016B800B71BB71BB71BB71BB71BB71BB71BB71B92
:1016C800B71BB71BB71BB71BB71BB71BB71BB71B82
:1016D800B71BB71BB71BB71BB71BB71BB71BB71B72
:1016E800B71BB71BB71BB71BB71BB71BB71BB71B62
:1016F800B71BB71BB71BB71BB71BB71BB71BB71B52
:10170800B71BB71BB71BB71BB71BB71BB71BB71B41
:10171800B71BB71BB71BB71BB71BB71BB71BB71B31
:10172800B71BB71BB71BB71BB71BB71BB71BB71B21
:10173800B71BB71BB71BB71BB71BB71BB71BB71B11
:10174800B71BB71BB71BB71BB71BB71BB71BB71B01
:10175800B71BB71BB71BB71BB71BB71BB71BB71BF1
:10176800B71BB71BB71BB71BB71BB71BB71BB71BE1
:10177800B71BB71BB71BB71BB71BB71BB71BB71BD1
:10178800B71B971B971B971BB71BB71BB71BB71B21
:10179800B71BB71BB71BB71BB71BB71BB71BB71BB1
:1017A800B71BB71BB71BB71BB71BB71BB71BB71BA1
:1017B800B71BB71BB71BB71BB71BB71BB71BB71B91
:1017C800B71BB71BB71BB71B971B971B971BB71BE1
:1017D800B71BB71BB71BB71BB71BB71BB71BB71B71
:1017E800B71BB71BB71BB71BB71BB71BB71BB71B61
:1017F800B71BB71BB71BB71BB71BB71BB71BB71B51
:10180800B71BB71BB71BB71BB71BB71BB71BB71B40
:10181800B71BB71BB71BB71BB71BB71BB71BB71B30
:10182800B71BB71BB71BB71BB71BB71BB71BB71B20
:10183800B71BB71BB71BB71BB71BB71BB71BB71B10
:10184800B71BB71BB71BB71BB71BB71BB71BB71B00
:10185800B71BB71BB71BB71BB71BB71BB71BB71BF0
:10186800B71BB71BB71BB71BB71BB71BB71BB71BE0
:10187800B71BB71BB71BB71BB71BB71B971B971B10
:10188800971B971B971B971BB71BB71BB71BB71B40
:10189800B71BB71BB71BB71BB71BB71BB71BB71BB0
:1018A800B71BB71BB71BB71BB71BB71BB71BB71BA0
:1018B800B71BB71BB71BB71BB71BB71BB71BB71B90
:1018C800B71BB71BB71BB71B971B971B971B971B00
:1018D800971B971BB71BB71BB71BB71BB71BB71BB0
:1018E800B71BB71BB71BB71BB71BB71BB71BB71B60
:1018F800B71BB71BB71BB71BB71BB71BB71BB71B50
:10190800B71BB71BB71BB71BB71BB71BB71BB71B3F
:10191800B71BB71BB71BB71BB71BB71BB71BB71B2F
:10192800B71BB71BB71BB71BB71BB71BB71BB71B1F
:10193800B71BB71BB71BB71BB71BB71BB71BB71B0F
:10194800B71BB71BB71BB71BB71BB71BB71BB71BFF
:10195800B71BB71BB71BB71BB71BB71BB71BB71BEF
:10196800B71BB71BB71BB71BB71BB71BB71BB71BDF
:10197800B71BB71BB71BB71B971BB71BB71BB71BEF
:10198800B71BB71BB71BB71BB71BB71BB71BB71BBF
:10199800B71BB71BB71BB71BB71BB71BB71BB71BAF
:1019A800B71BB71BB71BB71BB71BB71BB71BB71B9F
:1019B800B71BB71BB71BB71BB71BB71BB71BB71B8F
:1019C800B71BB71BB71BB71BB71BB71BB71BB71B7F
:1019D800B71BB71BB71B971BB71BB71BB71BB71B8F
:1019E800B71BB71BB71BB71BB71BB71BB71BB71B5F
:1019F800B71BB71BB71BB71BB71BB71BB71BB71B4F
:101A0800B71BB71BB71BB71BB71BB71BB71BB71B3E
:101A1800B71BB71BB71BB71BB71BB71BB71BB71B2E
:101CA800B71BB71BD823D823D823D823B71BB71BF8
:101CB800B71BB71BB71BB71BB71BB71BB71BB71B8C
:101CC800B71BB71BB71BB71BB71BB71BB71BB71B7C
:101CD800B71BB71BB71BB71BB71BB71BB71BB71B6C
:101CE800B71BB71BB71BB71BB71BB71BB71BB71B5C
:101CF800B71BB71BB71BB71BB71BB71BB71BB71B4C
:101D0800B71BB71BB71BB71BB71BB71BB71BB71B3B
:101D1800B71BB71BB71BB71BB71BB71BB71BB71B2B
:101D2800B71BB71BB71BB71BB71BB71BB71BB71B1B
:101D3800B71BB71BB71BB71BB71BB71BB71BB71B0B
:101D4800B71BB71BB71BB71BB71BB71BB71BB71BFB
:101D5800B71BB71BB71BB71BB71BB71BB71BB71BEB
:101D6800B71BB71BB71BB71B971B971B971B971B5B
:101D7800B71BB71BB71BB71BB71BB71BB71BB71BCB
:101D8800B71BB71BB71BB71BB81BB81BB81BB81BB7
:101D9800B81BB81BB81BB81BD823D823D823D82303
:101DA800D823D823D823D823D823D823D823D82353
:101DB800D823D823D823D823B81BB81BB81BB81BE3
:101DC800B81BB81BB81BB81BB71BB71BB71BB71B77
:101DD800B71BB71BB71BB71BB71BB71BB71BB71B6B
:101DE800971B971B971B971B971B971BB71BB71B1B
:101DF800B71BB71BB71BB71BB71BB71BB71BB71B4B
:101E0800B71BB71BB71BB71BB71BB71BB71BB71B3A
:101E1800B71BB71BB71BB71BB71BB71BB71BB71B2A
:101E2800B71BB71BB71BB71BB71BB71BB71BB71B1A
:101E3800B71BB71BB71BB71BB71BB71BB71BB71B0A
:101E4800B71BB71BB71BB71BB71BB71BB71BB71BFA
:101E5800B71BB71BB71BB71BB71BB71BB71BB71BEA
:101E6800B71BB71BB71BB71B971B971B971B971B5A
:101E7800B71BB71BB71BB71BB71BB71BB71BB71BCA
:101E8800B71BB71BB71BB71BB81BB81BB81BB81BB6
:101E9800B81BD823D823D823D823D823D823D8238A
:101EA800D823D823D823D823D823D823D823D82352
:101EB800D823D823D823D823D823D823D823B81B6A
:101EC800B81BB81BB81BB81BB71BB71BB71BB71B76
:101ED800B71BB71BB71BB71BB71BB71BB71BB71B6A
:101EE800971B971B971B971B971BB71BB71BB71BFA
:101EF800B71BB71BB71BB71BB71BB71BB71BB71B4A
:101F0800B71BB71BB71BB71BB71BB71BB71BB71B39
:101F1800B71BB71BB71BB71BB71BB71BB71BB71B29
:101F2800B71BB71BB71BB71BB71BB71BB71BB71B19
:101F3800B71BB71BB71BB71BB71BB71BB71BB71B09
:101F4800B71BB71BB71BB71BB71BB71BB71BB71BF9
:101F5800B71BB71BB71BB71BB71BB71BB71BB71BE9
:101F6800B71BB71BB71BB71B971B971BB71BB71B19
:101F7800B71BB71BB71BB71BB71BB71BB71BB71BC9
:101F8800B71BB71BB71BB71BB81BB81BD823D82365
:101F9800D823D823D823D823D823D823D823D82361
:101FA800D823D823D823D823D823D823D823D82351
:101FB800D823D823D823D823D823D823D823D82341
:101FC800D823D823B81BB81BB71BB71BB71BB71B25
:101FD800B71BB71BB71BB71BB71BB71BB71BB71B69
:101FE800B71BB71B971B971BB71BB71BB71BB71B99
:101FF800B71BB71BB71BB71BB71BB71BB71BB71B49
:10200800B71BB71BB71BB71BB71BB71BB71BB71B38
:10201800B71BB71BB71BB71BB71BB71BB71BB71B28
:10202800B71BB71BB71BB71BB71BB71BB71BB71B18
:10203800B71BB71BB71BB71BB71BB71BB71BB71B08
:10204800B71BB71BB71BB71BB71BB71BB71BB71BF8
:10205800B71BB71BB71BB71BB71BB71BB71BB71BE8
:10206800B71BB71BB71BB71BB71BB71BB71BB71BD8
:10207800B71BB71BB71BB71BB71BB71BB71BB71BC8
:10208800B71BB71BB71BB71BD823D823D823D82314
:10209800D823D823D823D823D823D823D823D82360
:1020A800D823D823D823D823D823D823D823D82350
:1020B800D823D823D823D823D823D823D823D82340
:1020C800D823D823D823D823B71BB71BB71BB71BD4
:1020D800B71BB71BB71BB71BB71BB71BB71BB71B68
:1020E800B71BB71BB71BB71BB71BB71BB71BB71B58
:1020F800B71BB71BB71BB71BB71BB71BB71BB71B48
:10210800B71BB71BB71BB71BB71BB71BB71BB71B37
:10211800B71BB71BB71BB71BB71BB71BB71BB71B27
:10212800B71BB71BB71BB71BB71BB71BB71BB71B17
:10213800B71BB71BB71BB71BB71BB71BB71BB71B07
:10214800B71BB71BB71BB71BB71BB71BB71BB71BF7
:10215800B71BB71BB71BB71BB71BB71BB71BB71BE7
:10216800B71BB71BB71BB71BB71BB71BB71BB71BD7
:10217800B71BB71BB71BB71BB71BB71BB71BB71BC7
:10218800B71BD823D823D823D823D823D823D82398
:10219800D823D823D823D823D823D823D823D8235F
:1021A800D823D823D823D823D823D823D823D8234F
:1021B800D823D823D823D823D823D823D823D8233F
:1021C800D823D823D823D823D823D823D823B71B58
:1021D800B71BB71BB71BB71BB71BB71BB71BB71B67
:1021E800B71BB71BB71BB71BB71BB71BB71BB71B57
:1021F800B71BB71BB71BB71BB71BB71BB71BB71B47
:10220800B71BB71BB71BB71BB71BB71BB71BB71B36
:10221800B71BB71BB71BB71BB71BB71BB71BB71B26
:10222800B71BB71BB71BB71BB71BB71BB71BB71B16
:10223800B71BB71BB71BB71BB71BB71BB71BB71B06
:10224800B71BB71BB71BB71BB71BB71BB71BB71BF6
:10225800B71BB71BB71BB71BB71BB71BB71B971B06
:10226800971BB71BB71BB71BB71BB71BB71BB71BF6
:10227800B71BB71BB71BB71BB71BB71BD823D82374
:10228800D823D823D823D823D823D823D823D8236E
:10229800D823D823D823D823D823D823D823D8235E
:1022A800D823D823D823D823D823D823D823D8234E
:1022B800D823D823D823D823D823D823D823D8233E
:1022C800D823D823D823D823D823D823D823D8232E
:1022D800D823D823B71BB71BB71BB71BB71BB71B14
:1022E800B71BB71BB71BB71BB71BB71BB71B971B76
:1022F800971BB71BB71BB71BB71BB71BB71BB71B66
:10230800B71BB71BB71BB71BB71BB71BB71BB71B35
:10231800B71BB71BB71BB71BB71BB71BB71BB71B25
:10232800B71BB71BB71BB71BB71BB71BB71BB71B15
:10233800B71BB71BB71BB71BB71BB71BB71BB71B05
:10234800B71BB71BB71BB71BB71BB71BB71BB71BF5
:10235800B71BB71BB71BB71BB71BB71BB71B971B05
:10236800971BB71BB71BB71BB71BB71BB71BB71BF5
:10237800B71BB71BB71BB71BD823D823D823D82321
:10238800D823D823D823D823D823D823D823D8236D
:10239800D823D823D823D823D823D823D823D8235D
:1023A800D823D823D823D823D823D823D823D8234D
:1023B800D823D823D823D823D823D823D823D8233D
:1023C800D823D823D823D823D823D823D823D8232D
:1023D800D823D823D823D823B71BB71BB71BB71BC1
:1023E800B71BB71BB71BB71BB71BB71BB71B971B75
:1023F800971B971BB71BB71BB71BB71BB71BB71B85
:10240800B71BB71BB71BB71BB71BB71BB71BB71B34
:10241800B71BB71BB71BB71BB71BB71BB71BB71B24
:10242800B71BB71BB71BB71B971BB71B971BB71B54
:10243800971BB71BB71BB71BB71BB71BB71BB71B24
:10244800B71BB71BB71BB71BB71BB71BB71BB71BF4
:10245800971B971B971BB71BB71BB71B971B971B84
:10246800971BB71B981BB81BB71BB71BB71BB71B12
:10247800B71BB71BB71BD823D823D823D823D823F7
:10248800D823D823D823D823D823D823D823D8236C
:10249800D823D823D823D823D823D823D823D8235C
:1024A800D823D823D823D823D823D823D823D8234C
:1024B800D823D823D823D823D823D823D823D8233C
:1024C800D823D823D823D823D823D823B823D8234C
:1024D800D823D723D723D823D81BD81BD71BB71B60
:1024E800B71BB71BB71BB71BB81BB71BB71BB71B53
:1024F800B71BB71BB71BB71B971B971B971BB71BA4
:10250800981BB71B971BB71BB71BB71BB71BB71B72
:10251800B71BB71BB71BB71BB71BB71BB71BB71B23
:10252800B71BB71BB71BB71B981B981B971B971B91
:10253800971BB71BB71BB71BB71BB71BB71BB71B23
:10254800B71BB71BB61BB71BB71BB71BD61BB61BD6
:10255800971B9823981B981B971B971B97239723C8
:10256800B723B71B99239923B823B71BB71BB71BEE
:10257800D823D823D823D823D823D823D823D8237B
:10258800D823D823D823D823D823D823D823D8236B
:10259800D823D823D823F823D823D823D823D8233B
:1025A800D823F823F823F823F823F823F823D8238B
:1025B800D823D823D823D823F823D823D823D8231B
:1025C800D823D823D823D823D723D723B82BB82B5D
:1025D800D823D723B723B823D81BD81BD81BD71B7E
:1025E800D81BD81BB723B823B81BB813B81BB71B05
:1025F800B71BB71B971B962397239723981B981BEA
:10260800981B981B971BB71BB71BB71BB71BB71B90
:10261800B71BB71BB71BB71BB71BB71BB71BB71B22
:10262800B71BB71BB71BB71B981B971B971B971B91
:10263800971B971BB71BB71BB71BB71BB71BB71B42
:10264800B71BB71BB61BB61BB61BB61BD61BB61BD8
:10265800971B9823971B971BB71B971B97239723A9
:10266800B623B71BB81BB81BB81BB71BB71BB71BC8
:10267800B723B71BB723B71BD823D823D823D8230E
:10268800D823D823D823D823D823D823D823F8234A
:10269800D823F823F823F823D823F823D823F823BA
:1026A800F823F823F923F823F823F823F823F82349
:1026B800F823F823D823F823F823F823F823F8235A
:1026C800D823F823D823D823F823D823B92BB82B19
:1026D800F823F723D723D823D81BD81BD81BD71BFD
:1026E800D71BD81BB723B823B81BB81BB71BB71BFE
:1026F800B71BB71B971B962396239723971B981BEB
:10270800981B971B97239623B71BB71BB71BB71BA1
:10271800B71BB71BB71BB71BB71BB71BB71BB71B21
:10272800B71BB71BB71BB71B971B971B971BB61B72
:10273800B61BB61BB61BB71BB71BB71B971BB71B24
:10274800B71BB71BB61BB61BB61BB61B971B971B35
:10275800971B971B971B961BB61BB61B9623B62376
:10276800B61BD61BD71BD71BD71BB723B723B7233B
:10277800B723D723B723D723B723B723B723B72341
:10278800B723D723B723D723D823D823D823D823AD
:10279800D823D823D823D823D823D823D823D82359
:1027A800D823D823D823D823D823D823D823D7234A
:1027B800D823D723D823D723D823D723D823D7233D
:1027C800D823D723D823D823D81BD81BB823B8237A
:1027D800D71BD723B723B723D823D723B723B723A8
:1027E800D723D823B723B7239623B623B623B623F4
:1027F8009723972397239623B623B61BB61BB61B9E
:10280800B61BB61B95239523B61BB61BB71BB61B69
:10281800B71BB61BB71BB61BB71BB61BB71BB61B24
:10282800B71BB61BB71BB61B95339433943394333D
:102838009433943394339433943395339533953355
:102848009533953394339433943394339533953344
:10285800B52BB52BB433B43393339333B433B43388
:10286800B433B42BD32BD32BB433B533B533B533FF
:10287800B533B533B533B533D53BD53BD53BD53B70
:10288800D53BD53BD53BD53BD53BD53BD63BD53BBF
:10289800D63BD63BD63BD63BD63BD63BD63BD63BA8
:1028A800D63BD63BD63BD63BD63BD63BD63BD63B98
:1028B800D63BD63BD63BD63BD63BD63BD63BD53B89
:1028C800D53BD53BD53BD63BF633F633D633D6335B
:1028D800D533D533B43BB43BB433B433B43BB43B56
:1028E800B533B533B533B53B943B933B933B933BFF
:1028F800953B953395339433B333B32BB32BB32B29
:10290800B33393339333933394339433943394336B
:102918009433943394339433943394339433943377
:102928009433943394339433F684F584F584F5849E
:10293800F584F584F584F584F684F684F684F684C3
:10294800F68CF68CF68CF58CF58CF58CD68CF68C92
:10295800168515851585F584F58CF58CF684F68431
:10296800F68CF58C14851485F584F58CF58CF58C2E
:10297800F58CF58CF58CF58CD58CD58CD58CD58CC7
:10298800D58CD58CF58CF58CD58CD58CD58CF58CD7
:10299800D58CF58CD58CF58CD58CD58CD58CF58CC7
:1029A800D58CF58CD58CF58CF58CF58CF58CF58C57
:1029B800F58CD58CD58CD58CF58CF58CF58CF58C67
:1029C800F58CD58CD58CF584F584F584F584F5845F
:1029D800F584F584D58CD48CF48CF48CF58CF58C3A
:1029E800F58CF58CF58CF58CF58CF58CF58CF58CD7
:1029F800F68CF684F784F684167D157D157D15858D
:102A0800F684F684F684F58CF58CF58CF58CF58CCB
:102A1800F58CF58CF58CF58CF58CF58CF58CF58CA6
:102A2800F58CF58CF58CF58C14A514A513A513A5B8
:102A380013A513A513A514A514A514A514A514A5C9
:102A480014A514A514A514A514A5F4A4F4A414A5F8
:102A5800349D3395339D139D13A514A5149D159D81
:102A6800F5A4F4A413A513A513A513A513A513A5DD
:102A780013A513A513A513A514A514A514A514A58A
:102A880014A514A514A514A514A514A514A514A576
:102A980014A514A514A514A514A514A514A514A566
:102AA80014A514A514A514A514A514A514A514A556
:102AB80014A514A514A514A514A514A514A514A546
:102AC80014A514A514A514A533A533A533A533A5BA
:102AD80033A514A514A514A513A513A5F3A4F3A44D
:102AE80013A513A513A5139D13A513A513A513A526
:102AF80014A514A5159D159D34953495349D149DE4
:102B0800159D159D15A514A514A513A513A513A505
:102B180013A513A513A513A513A513A513A513A5ED
:102B280013A513A513A513A551845184508450846B
:102B3800508450845084518451845184518C518CD8
:102B4800318C508C508C318C528C528C518C508CD6
:102B58007084707C70845084518C518C528452845F
:102B6800328C318C1194308C508C508C508C508C11
:102B7800508C508C508C508C30843084308430840D
:102B8800308430843084308430843084308430849D
:102B9800308430843084308430843084308430848D
:102BA800308430843084308430843084308430847D
:102BB800308430843084308430843084308430846D
:102BC800308430843084308C308C4F8C4F845084E7
:102BD8005084518C318C318471847184528C328C44
:102BE800518C51845184518451845184518451842D
:102BF800308C308C318C518450845084518C318C81
:102C0800328C328C318C318C518C518C518C518C52
:102C1800518C518C518C518C518C518C518C518CC4
:102C2800518C518C518C518C0D5B0D5B0C5B0C5B8A
:102C38000C5B0C5B0C5B0C5B0C5B0C5B0C5B0C5B54
:102C48000C630C630B630B630C630C630B632A63E9
:102C58002B5B2B5B2B5B0B630B630B630C630C5BBA
:102C68000D5BED62EC62EC620C630C5B0C5B0C5B65
:102C78000C5B0C5B0C5B0C5B0C5B0C5B0C5B0C5B14
:102C88000C5B0C5B0C5B0C5B0C5B0C5B0C5B0C5B04
:102C98000C5B0C5B0C5B0C5B0C5B0C5B0C5B0C5BF4
:102CA8000C5B0C5B0C5B0C5B0C5B0C5B0C5B0C5BE4
:102CB8000C5B0C5B0C5B0C5B0C5B0C5B0C5B0C5BD4
:102CC8000C5B0C5B0C5B0C63EC620B632B5B2B5B90
:102CD8000C630C63ED620D630C5B0C5BED5AED5AF3
:102CE800EC5A0C5B0C5B0C5B0D5B0D5B0D5B0D5BC1
:102CF8000C63EB62ED620D630C5B0B5BEC62ED62E7
:102D0800ED62ED620C630C630C5B0C5B0C5B0C5BA3
:102D18000C5B0C5B0C5B0C5B0C5B0C5B0C5B0C5B73
:102D28000C5B0C5B0C5B0C5BED4AED4AED4AED4A23
:102D3800ED4AEC4AEC4AEC4AED52EC4AEC52EC52C1
:102D4800CB52EC52CA4ACA528852C852C852A74AF1
:102D5800A752C852A852A85A875A8762875AC95296
:102D6800EB4ACC4ACC52CC52EC52EC4AEC4AEC4AF4
:102D7800EC4AEC4AEC4AEC4AEC4AEC4AEC4AEC4A9B
:102D8800ED4AED4AED4AED4AED4AED4AED4AED4A83
:102D9800ED4AEC4AEC4AEC4AEC4AEC4AEC4AEC4A7A
:102DA800EC4AEC4AEC4AEC4AEC4AEC4AEC4AEC4A6B
:102DB800EC4AEC4AEC4ACC4ACC4ACC4ACC4ACC4AFB
:102DC800CC4ACC4AEC4ACD4ACD528C4AED4A0C4BFF
:102DD800AB52CB5ACC62CC5ACB52CB52CC5ACC5AEF
:102DE800CB5ACB5ACB5ACB5ACB5AED5ACD4ACE4AAC
:102DF800ED5ACC5AAC52ED52EC4AEB52CC52CC5A6A
:102E0800CD52CC52EC52EC52EC4AED4AED4AED4A26
:102E1800ED4AED4AED4AED4AED4AED4AED4AED4AF2
:102E2800ED4AED4AED4AED4A3043304330433043F2
:102E380030433043304330430F4330432F432F4315
:102E48002F432E4B2E4B30746C946A9C4A946B9C87
:102E58008B9C6B9C4A9C4A9C4AA4099C6C946E84EB
:102E68000C437043714B2F435043504350435043DE
:102E780050435043504350435043504350435043B2
:102E8800514351435143514351435143514351439A
:102E9800514351435143514371437143714371430A
:102EA800714371437143714371437143714371437A
:102EB80071435143514351437143714371437143CA
:102EC800714371437143514B314B314B50436F4BFD
:102ED800EB5ACA62CA62CA62E95AE95ACA62CB6242
:102EE800CA62E962E95AEA5ACA5AEC52504B31436B
:102EF800304B104B104330434F3B4F432F432F4B26
:102F080030432F432F432F43304330433043304324
:102F18003043304330433043304330433043304311
:102F28003043304330433043752B752B752B952B2D
:102F3800952B942B942B942B742BB52B942B732BB0
:102F48009433932B722BF37C4FE64BFE4DF64DF6E4
:102F58006CF68CFE8CF68CFE4BF66DEED2E6719517
:102F6800502BF62BB62BB62BB62BB533B533B53362
:102F7800D633D633B633B633D633D633D633D63341
:102F8800D633D633D633D633F633F633F633F63371
:102F9800F633F733F733F733F73BF73BF73BF73BBA
:102FA800F73BF73BF73BF73BF73BF73BF73BF73B89
:102FB800F73BF73BF73BF73BF633D633D633D633FD
:102FC800D633D633D633D633D63BF63BB433F24B6F
:102FD8004C5BE862E86AC76AE662E662C76AC86A82
:102FE800E762E762E762085B285B4C53B343952BC3
:102FF80095339633D733D62BD423D423942B952BC0
:10300800942B9423952B952B952B952B952B952BC2
:10301800952B952B952B952B952B952B952B952BA8
:10302800952B952B952B952B981B981B971B971BCE
:10303800B71BB71BB71BB71BB71BB71B961B961B3A
:10304800B623B523541392642DDE27FE49FE29FECC
:1030580028FE27FE27FE47FE27F64AEED1E6D07C5B
:103068007223F91BD8131A24F823F823F823F8231A
:10307800F823F823F823F823F923F923F92319244B
:103088001924192419241924F923F9231924192492
:103098001924192419241924192419241924192440
:1030A8001924192419241924192419241924192430
:1030B8001924192419241924192419241924192420
:1030C800192419241924192CD8231834D62BB55CA3
:1030D800AE8C4A9C69A469AC68A468A469A469A474
:1030E80069A469A46A9C8A9C8A94CF841444B723EF
:1030F800B723971BD81BB813F713F713D71BB71BA6
:10310800D71BB71BB71B971BB71BB71BB71BB71B27
:10311800B71BB71BB71BB71BB71BB71BB71BB71B17
:10312800B71BB71BB71BB71B981B981BB81BB71B44
:10313800B71BB71BB81BB81BD81B9713971BB71B1C
:10314800B71BD723751B114C4DCE47EE48F669FEC9
:1031580068FE27F607FE48FE49FEEBE5D4DE706CF4
:10316800D42BD81BF81BD71BD81BD81BF823F82344
:10317800F923F923F923F923F923F923F923F92367
:10318800F923F923F923F923F923192419241924F4
:10319800192419241924192419241924192419243F
:1031A800192419241924192419241924192419242F
:1031B800192419241924192419241924192419241F
:1031C800192419241924F923182C372CD52BF56C1C
:1031D8008FBD69CD48D567DD67D567D568D568D512
:1031E80068D568D569D569CD8AC5AFADB143B62371
:1031F800D723D723F823F81BF713F71BB71BB71BE5
:10320800B71BB71B981B981BB81BB71BB71BB71B63
:10321800B71BB71BB71BB71BB71BB71BB71BB71B16
:10322800B71BB71BB71BB71B981BB71BB71BB71B25
:10323800B71BB71BB81BB81BB81B9813B81BD81BF8
:10324800971BB71BB61BB13B2FBE8BE689F628EE42
:1032580028F669FE69FE29FE0AF690EEF8CEB0431C
:10326800B423D71B182CD823F823F823F923F923E0
:10327800F923F923F923F923F923F923F923F92366
:10328800F923F923F923F9231A24192419241A24D0
:103298001A241A241A241A243A2C3A2C3A2C3A2C96
:1032A8003A2C3A2C3A2C3A2C3A2C3A2C3A2C3A2CE6
:1032B8003A2C3A2C3A2C3A2C19241924192419247A
:1032C8001924192419241924F823F72BD52BF46C65
:1032D8004FD64AFE49FE69FE48FE48FE49FE49FEB1
:1032E80049FE49FE49F64AF68CEE31C69143D7238A
:1032F800D823D71BB71BB71BD71BD71BB8239823BB
:10330800B71BB713B81BB81BB81BB71BB71BB71B2A
:10331800B71BB71BB71BB71BB71BB71BB71BB71B15
:10332800B71BB71BB71BB71BB71BB71BB71BB71B05
:10333800B71BB71BB71BB81BB81BD81B981BB823E8
:10334800971B971BB723722B929D50D6CDF66AF622
:103358002AEE6BF68AFE4BF66EEEF5E6399EB42B36
:10336800F71BD81BD923D92BD823F823F823F82304
:10337800F823F923F923F923F923F923F923F92366
:103388001924192419241924F923F923F9231924B0
:10339800192419241924192419241924192419243D
:1033A800192419241924192419241924192419242D
:1033B8001924192419241924192C192C192C192CFD
:1033C800192C1924192419241924F82BD72B525CE9
:1033D800EECD29F628F628F648F648F649F649F6D5
:1033E80048F628F629F62AF68DF68FAD9333B91BE1
:1033F800F91BF91BD81BF823D71BD723982398232D
:10340800D71BD713B813B81BB71BB71BB71BB71BF2
:10341800B71BB71BB71BB71BB71BB71BB71BB71B14
:10342800B71BB71BB71BB71B952B952B942B942B4E
:10343800952B9523952395237523B62B5523952BEB
:10344800952B952B952B72334D4B4C84ACC56CEE5C
:103458002BEEC9E5E9ED8DF630D6D08C9143B42B2F
:103468001634D62B96339733B633D633D633D63372
:10347800D633D633D633D733D733D633D633F633DA
:10348800F733F733F63BF53B1444134CF34BF34B4C
:103498001344134413441444F543F63BF73B173CD9
:1034A800173C173C17341734173C173C173C173C8C
:1034B800F73B173CF73B173CF733F733F733F73352
:1034C800F733F733F733F733F733F733D63BD153C3
:1034D800ADC54AF649F668FE49F649F649F649F691
:1034E80048F648F628F62AF6D0F6EF9C9243972B32
:1034F800B623D62BB62BB62BB52B9533763376332E
:10350800B52BB523B5239623952B952B952B952B6A
:10351800952B952B952B952B952B952B952B952BA3
:10352800952B952B952B952BD674D674D674D6746B
:10353800D674D674D774D774D76CD76CD774D7743D
:10354800D774D674D674D674D47C4F74CD9C0DD6EB
:10355800C9DDC8E50AEE6FEE8F945274D674D6743E
:10356800F674D66CB76CD774D674D674B674D67431
:10357800D674D66CD76CD86CB774B774D674F67426
:103588001875D66C947C139DD2BD31CE52D652D6C6
:1035980092D6B2D692D6F5DE57C6B484B574D66C38
:1035A800F674D66C1775D76CD774D774D774D7746C
:1035B800D774D774D774D774D774D774D774D774AB
:1035C800D774D774D774D774B76CD774B774927C20
:1035D800AEC54BEE69F648F669F628EE29FE29FED7
:1035E80028F669FE48FE2AEEB3EE72AD727CD674F8
:1035F800F774B66CD76CF774D774B774B77CB77CAC
:10360800B774D774D774D774B774B674D674D674BD
:10361800D674D674D674D674D674D674D674D67452
:10362800D674D674D674D674145C145C145C145CAA
:10363800145C145C145C145C145C145C145C145C02
:10364800145C145C145C1454355C12642E74CCA4A1
:10365800C8B469D58FF632D611743564145C145425
:10366800135C335C3454545C545C345C3464345CB4
:10367800535C545C555C565C156414643464345C67
:10368800555C335C508450B5CAACABD58FFE2DEE7B
:103698008FF68EEEADF64DE615F756CE316C345CEE
:1036A8005464345C555C755C555C5564556455646C
:1036B8005564556455645564355C355C355C355CDA
:1036C800355C355C355C355C5564355C565C326C14
:1036D8002EA52DDE4AE648EE69F629F609FE4AFED1
:1036E8004AF629EE49EE8EEE79EF5174F0633264B2
:1036F8001354755C35541454355C145C145C145CB8
:10370800145C145C145C145C145C145C145C145C31
:10371800145C145C145C145C145C145C145C145C21
:10372800145C145C145C145C752375237523752371
:1037380075237523752375237523752375237523C1
:103748007523752375237523562B343B8C3AA95260
:10375800A762286BE8624C63303BD53B9633B72BA6
:10376800B733D733D62BD52BD52BD62BB62BD62B79
:10377800D62BD62BD72BD72BD733D73BF73BD733E3
:10378800D733D33B506CB1ADE46A005A626A4262E7
:10379800A46A405AE7BC8CEE8FEE94D6B143163C2F
:1037A8001844F83BF83319341834183418341834DA
:1037B80018341734173417341734173417341734A8
:1037C8001734F733F733F733F733D733F82BB433EA
:1037D800B27C93D6CDEE48EE08F66BFE4BFE2BF688
:1037E8008CFE6DF68EE614DF39A67233B433F633E9
:1037F8009523F72BB723B623962B962B952B752B52
:10380800752B752375239523952395237523752388
:1038180075237523752375237523752375237523E0
:103828007523752375237523D81BD81BD81BD81B64
:10383800D81BD81BD81BD81BD81BB81BB81BB81B48
:10384800B81BB81BD81BB81B9923B73BCD4A274ACE
:1038580025526652E44188429043942BB723D923DA
:10386800D923D923F823F823F923F9231A2419246F
:10387800192419241A241A24F92BF92BFA2BFA23C0
:10388800192CF53B4F6C90AD625200310039E0388D
:103898000031C02865ACCCFE6CEE52CE134C192C0E
:1038A800FA2B1B343B2C3B2C3A2C3A2C3A2C3A2C36
:1038B8003A2C3A2C3A2C3A2C3A2C3A2C3A2C3A24D8
:1038C8003A241A241A241924192C192C3A24F82BCE
:1038D800B23B706C0D9D8EE64BF6C8EDE9EDEAED56
:1038E8002CEED1F673C6748D1444B62BD72B18243E
:1038F800D81BD813D91BD91BD91BD823D823D82315
:10390800D823D81BD81BD81BD81BD81BD81BB81B2F
:10391800B81BB81BB81BB81BD81BD81BD81BD81B87
:10392800D81BD81BD81BD81BB71BB71BB71BB71B7B
:10393800B71BB71BB71BB71BB71BB71BB71BB71BEF
:10394800B71BB71BB81BD81BB91B74334E84AAAC62
:1039580089B467AC09BD0CA53285D133162C181C67
:10396800F923D923FA2BFA2BD923F923FA23FA239B
:10397800F923FA23FA23FA2BFA2BFA2B1B2C1B2CEC
:103988001A2CF53B4F6C90B54A94C46A646A646A11
:103998004362E051A5B44AF64BF631DE14541A34AA
:1039A8001A2C3A2C5B2C5B2C5A2C5A2C5A2C3A2C5D
:1039B8003A2C3A2C3A2C3A2C5A2C3A2C3A2C3A2CAF
:1039C8003A2C3A2C3A2C392C192CF82B1824592C2F
:1039D8005834F53B513B4F7C0DDEC7EDC7E588D524
:1039E8002DDEB0B5B04B532B952B1834D723F823C5
:1039F800F923D81B1A24F923D81BD823D723D72374
:103A0800D71BD71BD71BD81BD81BB81BB71BB71B7B
:103A1800B71BB71BB71BB71BB71BB71BB71BB71B0E
:103A2800B71BB71BB71BB71B952395239523952366
:103A380095239523952395239523952395239523BE
:103A4800952396239623B623961B5133CC9C28C5E1
:103A5800C7C449D5C8DDCFEE12AE8E3BF333D523AC
:103A6800D62BB62B98339833B833D733D82BF72BBC
:103A7800F72BF82BD82BF833D733F733F82BF82B51
:103A8800D733D3432F746FB54DBD6DCD6ECD0CC5F7
:103A9800CBBC09C54BEE6AFEEAED31DE924BF83B32
:103AA800383C373417341834183418341834183468
:103AB800183418341834183418341834183418349E
:103AC800F733F733F733F833B733183C1634D523C5
:103AD800F623F733B73BF2634DB527C5EAD58EEE2B
:103AE800F3EE72A5723BD733D633B633B62BB72B6A
:103AF800B723B723B7239623B62BB62BB52BB52BF5
:103B0800B52BB52BB523B52396239623952395235B
:103B180095239523952395239523952395239523DD
:103B28009523952395239523B343B343B343B343D5
:103B3800B343B343B343B343B343B343B343B343CD
:103B4800B343D443D443D443154CCF5B889C07C5B7
:103B58000EEE4EF66AF66CEED0BDAD63F25BF44B3A
:103B680034541454F65BB553D553F453144C144CD5
:103B7800144C144C154C154C14543454544C344CAB
:103B8800354C125C4F7C4FB589B4A7BCC7BCE8C4A0
:103B9800C6C4A5C426DD09EE8DF610CEF163155412
:103BA80054543354555C555C355436543654365455
:103BB80036543654365436543654365436543654AD
:103BC8003654365436543654F7531754344C534CF1
:103BD800554C154CF4536F530C842A8C298CEDA446
:103BE80092BD518C4F4B14541554D44B1554165444
:103BF800F54BF54BF54BF44BF44BF44BD34BD34B04
:103C0800D34BD34BF443D443D443D443B343B34308
:103C1800B343B343B343B343B343B343B343B343EC
:103C2800B343B343B343B343F874F874F874F87404
:103C3800F874F874F874F874F874F874F874F8741C
:103C4800F874F874F874F86CF76CF37CCDBD8CF6E6
:103C58002DEEA06146DD6CEEF2C5D284D67CD87418
:103C6800F76CF86CF974D874D874F874F774F7743E
:103C7800F774F774F86CF86C186D176D176D166596
:103C8800386DF66CD48453A56FB54BBD27C526CDCA
:103C980026D507CD08C5ADCD51CEF08CF67CF86C95
:103CA800176DF66C1875B774F874F874F874F874BE
:103CB800F874F874F874F874F874F874F874F8749C
:103CC800F874F874F874F974DB74DA74176DF66CB8
:103CD800186DF86C956C8C32493268426742A8427C
:103CE800283A8C42546CF774D76C1975F86CD86CF8
:103CF800F86CF86CF874F874F874F874F774F7746E
:103D0800F774F874F86CF86CF874F874F874F8745C
:103D1800F874F874F874F874F874F874F874F8743B
:103D2800F874F874F874F874B533B533B533B5333B
:103D3800B533B533B533B533B533B533B533B5333B
:103D4800D533D53BD53BF633F633D03BAEA5ADEEF8
:103D5800EBEDC2AB46DD8EEED4AD90431644F73B97
:103D6800F7331734173C1744F743F743173C163C0F
:103D780016441644373C383C173C373C363C363CF6
:103D8800573C373C1744154C745CEF8469BD04CD2F
:103D980026D52AC50F9D706CB4641444584C184439
:103DA800373C583C383C3944384438443844384423
:103DB8003844384437443744374437443744374421
:103DC8003744374437441844184438443844173C77
:103DD800373C3744B43BF02ACE2A6B2ACB3A8B3A8D
:103DE800AC328E2A733BF643163C163C163C173C05
:103DF800F73BF63BF63BF63BF63BF643F63BF63B2A
:103E0800F63BF63BF633D633D63BD53BD53BD533DD
:103E1800B533B533B533B533B533B533B533B5335A
:103E2800D533D533D533D533962396239623962386
:103E380096239623962396237623962396239623D2
:103E4800962396239623B623D823712BEE848FDEF0
:103E58000BEE0AF6A9EDB1EEF374732BD72BD82B22
:103E6800F823F823F72BD72BF82BF82BF82BF82B64
:103E7800F833F833192C192C192C19341834183430
:103E8800382C392C1A341934162CD2640DD649F62C
:103E98000AEE2EDE529DB043363C3934D9333B3CD2
:103EA8005A3419245B341A343934393439343934AE
:103EB8003934393439343934393439343934393492
:103EC8003934193419341934182C3934193419344B
:103ED800183438341734D633F53BD343F67C1264A0
:103EE800B343F53BD73BF833F72BF72BF72BD72BFF
:103EF800D72BD72BD72BD72BB72BB72BB72BB72B2A
:103F0800B723B723B7239723B6239623962396235D
:103F18009623962396237623762376237623962351
:103F28009623962396239623B71BB71BB71BB71B5D
:103F3800B71BB71BB71BB71BB71BB71BB71BB71BE9
:103F4800B71BB71BB71BB8239823953BCE6B52D62C
:103F58002BEE4BFE8EFEF6E6134CF723F823F823E0
:103F68001724172418241824182418241924F92B82
:103F7800F82BF92B192419241A2CFA33F93BF933A5
:103F8800192C392C3A2C392CD62BF474B1EE46DD89
:103F980063B46EE611BE0E649233593C3A3C3A342F
:103FA8003A2C5A34F9331A3C3A343A343A343A2CE3
:103FB8003A2C3A2C3A2C3A2C3A2C3A2C3A2C3A2CC9
:103FC8003A2C3A2C3A2C3A2C59243A241A2C1A34E2
:103FD800192C192C392C592C172CF63B598535647A
:103FE800B6331934D82BB723182C182418241824BE
:103FF800F823F823F823F823F82BD823D823D82339
:10400800D823D823D823D823D823B71BB71BB71B4B
:10401800B71BB71BB71BB71BB71BB71BB71BB71B08
:10402800B71BB71BB71BB71BB71BB71BB71BB71BF8
:10403800B71BB71BB71BB71BB71BB71BB71BB81BE7
:10404800D81BD81BD81BD81BD923D733304352A52C
:104058002FD68ACD2EE630A5932B1A24F923F823E0
:104068001724F72318241824192419241A241A2485
:10407800192C192C392C3A2C1A2CFA33FA3BFA3B06
:104088001934392C3A2C3A2C3834946492E648D5B1
:1040980003A44DE6B1DE16D7379E735CD343F53BD8
:1040A8001734593C5A441A3C3A345B2C5B2C5B2C31
:1040B8005B2C5B2C5B2C5A2C3A2C5A2C3A2C3A2C25
:1040C8003A2C3A2C3A2C5A2C7A2C5A241A2C1A3478
:1040D8003A34192C392439245A2CF733F874565C9D
:1040E800F82B19243A2C192C1924192419241924C9
:1040F800F923F923F823F823F923D923D923D9233A
:10410800D923D923D81BD81BD81BD81BD81BD81BFD
:10411800B81BB71BB71BB71BB71BB71BB71BB71B06
:10412800B71BB71BB71BB71B971BB71B971BB71B37
:10413800971B971B971B971B971BB71BB71BB71B87
:10414800B71BB71BB71BD81BF80BD713B633F453E1
:10415800328DD0AD50D6D2AD722BFA23DA23D92BBB
:10416800F82BF72319241924192419241A241A249A
:10417800FA2B1A2C1A2C1A2C1A2CFB33FB33FA3371
:104188001A343A2C3A2C3A2C192C344CF2BD6FE6DE
:104198006EE6F0F6ABCD6ABD8FCE33DF51BE10852B
:1041A800F66C163C3A3C3B343B345A2C3A345A2C85
:1041B8003A345A2C3A345A2C3A2C3A2C3A2C3A2C77
:1041C8003A2C3A2C3A2C3A2C3934392C392C392CB3
:1041D800393439343A2C1A243A2CF82BF86C765C9A
:1041E800F82BF923192CF923192419241824F82356
:1041F800F823F823F823F823D823D823D923D81B66
:10420800D81BD823D823B81BB71BB71BB71BB71BA2
:10421800B71BB71B971BB71B971BB71B971BB71B66
:10422800971BB71B971BB71BB71BB71BB71BB71B36
:10423800B71BB71BB71BB71BB71BB71BB71BB71BE6
:10424800D823D823D823F81B1814381CD923752B46
:104258007133906C6DA5B4CE344CD82BDA2BFA2B75
:10426800F92BF82319243A24192419241924192478
:10427800FA2B1A2C1A2C1A2C3A2C1A2C1B341B34F5
:104288001A2C3A2C3A343A343A34163C916CF3AD41
:1042980013B60E9DAC944EAD2BA5CCBD2DCE6DADF9
:1042A800B49D965C38345B345B345A345A345A348F
:1042B8005A345A345A343A343A343A343A343A2C2E
:1042C8003A2C3A2C3A2C3A34193439345A2C392CA1
:1042D800182C39343A2C3B2C1A2CD7335A7D565C7F
:1042E800F72B3A2CF923192C1924192419241924E9
:1042F800F823F823F923F923F923F923F923F923D8
:10430800F823D823D823D823D823D823D823D823AD
:10431800B71BB71BB71BB71BB71BB71BB71BB71B05
:10432800B71BB71BB71BB71BB71BB71BB71B971B15
:10433800971B971B971B971BB71BB71BB71BB71B65
:10434800B71BB71BD823D71BD71BF823971BF933E9
:10435800B72BF2430C9591CE567D9533B82BD92BBC
:10436800F92BF92BF923F923192C192C3824382483
:10437800192C1A2C1A2C392C592459245A2C5A2CF9
:104388005A2C5A2C3A343A341A347A3C162C1534AE
:104398001544D43B154C345CD47C11958EC5489C8F
:1043A800EF9CF47CF6339B345B345B345B345B34D6
:1043B8005B345B345B345B345B345B345A345A347F
:1043C8005A345A343A345A2C3A2C5A2C5A2C3A2CFD
:1043D8001934192C3B243B24F82BD63BF97C155C6B
:1043E800D733392C1924392419241924F923F9230A
:1043F800F823F823D923D923F923F923F823D82339
:10440800D823D823D723D723D723D823B71BB71B21
:10441800B71BB71BB71BB71B971B971B971B971B84
:10442800971B971B971B971BB71BB71BB71BB71B74
:10443800B71BB71BB71BB71BB71BB71BB71BB71BE4
:10444800B71BD823D823D823D823D823D823B823D5
:104458001A2C932BCD84CFAD98B6B243F733F82BF3
:10446800F82B192C1A2CF92BF92B182C382C382C42
:10447800192C192C1A2C392C59245924592459240B
:104488005A245A2C3A2C1A343A345A2C9B2C5A2433
:104498009C345B341A343A441744F15B6EBDCECD7C
:1044A80050A57264573C7A2C7B345B345B345B34A4
:1044B8005B345B345B345B345A345A345A345A3480
:1044C8005A343A343A345A2C5A2C3A243A2C3A2C44
:1044D8003A343A2C3B243A2C584C5664B684756CC2
:1044E800575418345A2C191C1924192C1924192416
:1044F800192CF92BF92BF923F923F923F923F8239C
:10450800F823F823D723D723D823D823D823B71BB6
:10451800B71BB71BB71BB71BB71BB71BB71BB71B03
:10452800B71BB71BB71BB71BB71BB71BB71B971B13
:10453800971BB71BB71BB71BB71BB71BB71BB71B03
:10454800B81BD823D823D823B823B823D823D823F3
:10455800F923D533EF5B309D96CED284732B392C5B
:1045680018241924F923F92BF833F733F82BF823F7
:10457800392C392CF9233A2C392C392C3A2C3A2C51
:104588005A2C5A2C5B2C5B2C5A2C5A2C5B2C5B2CEF
:104598007A2C7A2C5A345A3C583C52540DA551D690
:1045A8005485143C7A3C5C345B345B345B345B3458
:1045B8005B345B345B345B345B345A345A345A347E
:1045C8005A345A345A345A2C5A2C3924592C7A2CA5
:1045D8003A243B245C2CB833D984169D34A5149511
:1045E800988DB75CD7233924D8235934191C191C42
:1045F8001924192CD82BD82BF923F923F923F923BB
:10460800F81BF71BD823D823D823D823D823B71BC4
:10461800B71BB71BB71BB71BB71BB71BB71B971B22
:10462800971BB71BB71BB71BB71BB71BB71B971B32
:10463800971BB71BB71BB71BB71BB71BB71BB71B02
:10464800B81BD823D823D823B823B823F823D723D3
:10465800F823D62BD34BB284F2C5F3B5D33BF8235A
:10466800392418243934F733F44B176DD85C373CA8
:104678003834192C5A343A2C392C3A2C3A2C3A2CF6
:104688003A2C5A2C5B2C5B2C5B2C5B2C3B345B341C
:104698007A2C7A2C5A345A3C58349354EC9C93D63E
:1046A800367538345B345C345B345B345B345B3490
:1046B8005B345B345B345A345A345A345A345A347F
:1046C8005A345A345A345A343A345A349A34392483
:1046D8001A1C9C34D733556431844E9C6D9CCE9CF7
:1046E800CF947174564C182C3834B71B3A241A24BA
:1046F800F91BF923F933D82BF823F923F923F923E4
:10470800F71BF71BD81BD823D823D823D823B71BCC
:10471800B71BB71BB71BB71BB71BB71BB71B971B21
:10472800971BB71BB71BB71BB71BB71BB71B971B31
:10473800971BB71BB71BB71BB71BB71BB71BB71B01
:10474800B81BD823D823D823D923D823F823F82370
:10475800181CF823D633535C4EADB4D63554F92B18
:10476800F823382C162C91335195309D748D325482
:104778001634392CD9231B2C3A2C3A2C1A343A34B7
:10478800393459345A345A2C5B2C5B2C5B345A34E8
:104798007B2C7B2C5B343A3C1734F46C4DADB4D68F
:1047A800755C3A345B3C5C345B345B345B345B345F
:1047B8005A345A345A345A345A345A345B345B347F
:1047C8005B345B345B2C3B34DA331B3C5B345B2C53
:1047D8005B34F733726CF3BD0FD60DE6ACDDCCDD80
:1047E800CCD5EFC5D69DD33B182C3A24FA2BFB2BFE
:1047F800FB23FA23F92BF8231824F823F823F823AA
:10480800F723F71BF81BF81BD823D823D823B71B8B
:10481800B71BB71BB71BB71BB71BB71BB71B971B20
:10482800971BB71BB71BB71BB71BB71BB71B971B30
:10483800971BB71BB71BB71BB71BB71BB71BD823D7
:10484800D823D823D823D823D81BF823F823D82350
:10485800181C181CD923F443CC9C51D6568D733B95
:10486800F43BB233D45C57A632C68B94519D726424
:10487800D5337A343B345B343A2C3A2C3A343934D5
:10488800593459345A345A345B345B345A345A34B0
:104898007B2C5B2C5B343A3C1644F474B0B594CE54
:1048A800144C5A3C3B345B3C5B347B345B347A3489
:1048B8007A347A347A345A347A345B345B345B34FD
:1048C8005B345B345B343B345D443C3C3A2C5A34B7
:1048D800F73B91438E8CAEC549C527CD28D508CD69
:1048E80089D58CC571ADCF5BF43BF733D92BDA2B67
:1048F8001B2C1A24181C182418241824F823F7230E
:10490800F823F823F81BF81BD823D823D823D82357
:10491800D823B71BB71BB71BB71BB71BB71B971BF6
:10492800971BB71BB71BB71BB71BB71B971B971B4F
:10493800971BB71BB71BB71BB71BB71BB71BD823D6
:10494800D823D823D823D823F71B1824D82BD82B1F
:10495800F8231924F923D43BAD8C0FCE13C6D09C71
:104968002E8415C6D6DE11C690ADB2AD3395125C55
:10497800373C392CD82B3A345B2C5B245A2C5A2CD4
:104988005A2C7A2C5A2C5B345B345B345A345A34A4
:104998007B347B345B343A4437549474D2BD14BEB0
:1049A80014447A3C39347A3C7B347B347A347A3414
:1049B8007A347A347A347A347B345B345B345B34DB
:1049C8005B345B345B345B345B2C1A2C392C3644F7
:1049D800926C92A52A8C2573657BE593A8BC88BC4C
:1049E800A58B25734673EE9C3395F353183CF92336
:1049F8003924381C381C181C1824F823F723F823EA
:104A0800F823D923D923D923D823D823D823D823A3
:104A1800D823B71BB71BB71BB71BB71BB71B971BF5
:104A2800971B971BB71BB71BB71BB71B971B971B6E
:104A3800971BB71BB71BB71BB71BB71BD823D823AC
:104A4800D823D823D823D823F71B1824D82BD82B1E
:104A5800F82BF8231A24B533AD84ACBDCAB4AFCD56
:104A6800B5E6F3CD0FADAE940D6C0F6C727C34646B
:104A7800F6335A2C7B3C3A345A2C5A2C5A2C5A2C42
:104A88005A2C5A2C5B345B345B345A345A347A349B
:104A98007A345B345B343944355C148D75CEB3A5F8
:104AA800F43B9B3C5A3C5A3C7B347B347B347A3411
:104AB8007A347A347B347B347B347B345B345B34B8
:104AC8005B345A347A347A347B2C9B34593C3454D2
:104AD800F2AD30CE667BA020C020205227AC07ACB8
:104AE8000031E02800312CB512CE53959333592C60
:104AF800582C171C581C181CF82BF82B1824182491
:104B0800F823D923D923D923D823D823D823D823A2
:104B1800D823D823B71BB71BB71BB71BB71B971BCB
:104B2800971B971BB71BB71BB71BB71B971B971B6D
:104B3800971BB71BB71BB71BB71BB71BD823D823AB
:104B4800D823D823D823F823F81BF923D823F82B04
:104B5800F82BD823FB23B5334F956AB5227B0CB5C8
:104B680092B5D2841254D243D14BB04BCF63526C1E
:104B7800F7335A2C1A2C1A2C5934593439343A34FC
:104B88003A345B343B343B345B345A345A347A34E9
:104B98007A345B345B343844B26C919D72C6518D63
:104BA800153C7C349D443B347B347B347B347B34F0
:104BB8007B347C347C347C347C347B347B347B3471
:104BC8007A347A347A347A345A2C5A34F73BB36CC0
:104BD80030CECBCDA67B00212021615A6BCD0BC5F1
:104BE8000039203920390BBDADCD13C6B143F73399
:104BF800182CF82339243A24DA2BBA2BF923F82372
:104C0800F823F823D823D823D823D823D823D82384
:104C1800D823D823B71BB71BB71BB71BB71B971BCA
:104C2800971B971BB71BB71BB71BB71B971B971B6C
:104C3800B71BB71BB71BB71BB71BB71BD823D8238A
:104C4800D823D823D823D823D923F923D823182421
:104C5800F823D823FB23B6331185CEBD0AADB0BDEA
:104C6800B27C913B373C182C163CB664D063937CDD
:104C7800374CF82B5B345A345834383439343A3496
:104C88005B345B343B345B345B345A347A347A3487
:104C98007A345B345C34374473854E954D95117D79
:104CA80077445C347D3C5C3C7B347B347B347B34A4
:104CB8007C345C345C347C347C347B347B347A34B0
:104CC8007A347A347A3479347834573C956479B6BE
:104CD80011BE71CE48638221C239014AADD56CCD6F
:104CE800804961396239AD9C32CE33C6F7A5D243CB
:104CF800F633182C1924D923DA2BBA2BFA23F923E3
:104D0800F823F823F823D823D823D823D823D82363
:104D1800D823D823B71BB71BB71BB71BB71BB71BA9
:104D2800971B971BB71BB71BB71BB71BB71BB71B2B
:104D3800B71BB71BB71BB71BB71BB71BD823D82389
:104D4800D823D823D823D823D82BD82BD823F82353
:104D5800181C1924DA23D733315CB29D12B6929D00
:104D6800144CF833182C593418345754958CD5945E
:104D78005464F53BF8331934183CF8335A3C5A3428
:104D88003A2C5B2C5B2C5B345B345B347A347A349E
:104D98007B3C7B3C5C34374472858F9D4F8D127D04
:104DA800573CBD3C1C2C7D3C7B347B347B347C34B1
:104DB8007C347C347C347C347B347A347A347A3472
:104DC8007A347B345B345934543C5575F5ADB4AD05
:104DD8005264F253F25BCF638C6B48736CC52CBD85
:104DE800486BCD6BB15BB253B253527454BE919DB4
:104DF800B45CD42BF72BF92BFA2BDA2BD92BD92B24
:104E0800D923F823F71BF71BF823D823D823D82353
:104E1800D823D823B71BB71BB71BB71BB71BB71BA8
:104E2800B71BB71BB71BB71BB71BB71BB71BB71BEA
:104E3800B71BB71BB71BB71BB71BB71BD823D82388
:104E4800D823D823D823D823D82BD82BF823F82332
:104E5800F923F923F923D733D43B725C916C52546C
:104E680018343B2C392C192C182CD543D494F3AC7A
:104E7800F38C1675D85CB94CDA5438443A345B3440
:104E88005B2C7B347A345A347B347B347B347B34EC
:104E98007B345B345C343844926CD3A5D07C725C30
:104EA800583C9C349D3C7C347B347B347B347C3450
:104EB8007C347C347C347B349B347A349A347A3432
:104EC8007B345B345C345A3CB654958D8D94D094C5
:104ED800F4435944164CF353D0634E844EBD2DB55C
:104EE8002D6CF14BD4431744D73BD24B0E9DEC8C21
:104EF8005575F433F72B3934F92BF92BD92BD92BDA
:104F0800D92BF923171C171CF823D823D823D82307
:104F1800D823D823B71BB71BB71BB71BB71BB71BA7
:104F2800B71BB71BB71BB71BB71BB71BB71BB71BE9
:104F3800B71BB71BB71BB71BB71BB71BD823D82387
:104F4800D823D823D823D823F823F823191CF91BEE
:104F5800D92BD92BF92BF82BD733B52B152CF623B6
:104F6800392C1A243A2C192C1834144C12A52FBD9C
:104F780065528B63167DB65C396D57441A345C34C0
:104F88005C345B345B3C5B3C5B347B347B347B3430
:104F98007B347B347C34594434646F5B6F533454B2
:104FA8009A449C347A349B349B3C7B3C9B347B34C2
:104FB8007C347B349B347B347A347A349A349B3C0B
:104FC8005B345C345D341B3C1844F77C15C673AD08
:104FD800354C3834573C5744D443526C4B948C8CE2
:104FE800524C5634573436341434525496BE939D2A
:104FF8005554F7331834D72318241824F923D92BF8
:10500800D923F923F823F71BF823D823D823D82347
:10501800D823D823D823B71BB71BB71BB71BB71B7D
:10502800B71BB71BB71BB71BB71BB71BB71BB71BE8
:10503800B71BB71BB71BB71BB71BD823D823D8235D
:10504800D823D823D823F823F823181C1A1CFA1BB2
:10505800D92BD933F92BF923192CF92B5924191CDD
:105068005A2CF9233A2C1934B62B3775874A635AC8
:10507800A87BE8521064F24BF764373C3A347D342D
:105088003B343B345B3C5B3C5C345C347B349B346E
:105098007C347C347C345A44F55B7253356C9764A9
:1050A800193C7B3C9B34BB3C9B349B349B349B34EA
:1050B8009B349B349A349A349A347A347B347B3CCC
:1050C8005B345C3C5C3C3B3C5A4416543174D7A579
:1050D8009975373458343834383C755C71A592A5C5
:1050E80075445824582C3634323C79965385305CB4
:1050F800F543D7331834382C18241824F923DA2325
:10510800DA23F923F823F823D823D823D823D8235C
:10511800D823D823D823B71BB71BB71BB71BB71B7C
:10512800B71BB71BB71BB71BB71BB71BB71BB71BE7
:10513800B71BB71BB71BB71BD823D823D823D82333
:10514800D823D823D823F823F723181C191C1A1C92
:10515800D92BDA2BDA2BFA2B1A2C1924382C182CE9
:10516800192C192C192CF833F53B377DCF6BE95ADC
:10517800D08C949D515C344C974C38345A347B34E1
:105188003A345B345B3C5B345C347C347B347B3456
:105198007C345C345B345944565C546CD25B766422
:1051A8005A4C7B3C9C3C9B349C349C349B349B34B5
:1051B8009B349A349B349B34BC3C7B347B345B34C7
:1051C8005B347A3C7B3C7A3C9A3C38341644B75C76
:1051D8003B96B65C58347B2C7A34153C748D5385D9
:1051E80015345A2CF72BB433B78DB58DCF3BD13B43
:1051F800D33BD5331734D723182419241A24FA2378
:10520800FA23D923D923D823D823D823D823D8239A
:10521800D823D823D823D823B71BB71BB71BB71B52
:10522800B71BB71BB71BB71BB71BB71BB71BB71BE6
:10523800B71BB71BB71BB71BD823D823D823D82332
:10524800D823D823D823F823F823F823F91BF923E4
:10525800F923FA23FA2BFA2BF923392C192C182CB9
:105268001824392C1934183C5554B574D0639284D9
:10527800F28C5CD75AAE756478445A345A343A344E
:105288005A349B3C7B345B345C347C347B347B34D5
:105298007B347B3C9B3C794C96641364D35B76648B
:1052A800594C7B449B347B349C349C3C9C349B34CD
:1052B8009B349B349B349B349C347C347C3C7B3CBB
:1052C8007A3C783C573C563456347634963C123CFB
:1052D800B16C3796543C55345534323C9385117D26
:1052E800113C9544744C5675D39DCE741265335D4C
:1052F800546D766DB74C372C382419241A24FA23A8
:10530800FA23D923D923D823D823D823D823D82399
:10531800D823D823D823D823B71BB71BB71BB71B51
:10532800B71BB71BB71BB71BB71BB71BB71BB71BE5
:10533800B71BB71BB71BB71BD823D823D823D82331
:10534800D823D823D823D923D923F923F72BF72B0C
:10535800192419241924F92BF92B1A2C3A2C5A2C14
:10536800381C39241A34384CDA8D325CB05BB4847A
:1053780076A55AC63AC6146C18445B345B343A3482
:105388007B349B347B2C7B347B347B347B347B3485
:105398009B3C9A3C9A3C7844D44BEB194D2AD45305
:1053A800785499447A34FD3C9D349C3C9C349B341D
:1053B8009B349B349C349D345D345D347D3C9B3CF4
:1053C800783CB744F544134D1255115D515D2F6576
:1053D8000D75AF8DD18D907DD085AF8531A630A666
:1053E800EE9570960F8E709E4DA64DA64F96508ED8
:1053F8004F9E5296966DD32338241924F923F92BFE
:10540800F92BF923F823F823F823D823D823D82312
:10541800D823D823D823D823B71BB71BB71BB71B50
:10542800B71BB71BB71BB71BB71BB71BB71BB71BE4
:10543800B71BB71BB71BD823D823D823D823D82307
:10544800D823D823D823D923D923D923F72BF72B2B
:10545800182439241824182C192CFA2BFA233A2446
:105468005A1C591C192C18445654B564D153D0638E
:10547800159D36ADF5AC7163B7433B345B345A2C9C
:105488009B349B345B2C9C347B347B347C347C3C59
:105498009A3C793C38341634532B533B533B533B9B
:1054A800D53BD633793C7A349C3C9C3C9C3C9B3C19
:1054B800BB349B349C347D349D3C7D347C3C7A3CAD
:1054C800783C1755F56D7486528E71966F8E8F964F
:1054D8004F9E2D9E4DA64C9E4C9E2C9E2DA66DAE8D
:1054E8000A9E2A9E4B9E2B962A9E4A9E4A968B9EE1
:1054F8002A9E4E96526D133437241924F923F92B1A
:10550800F923F8231824F723F823D823D823D823FA
:10551800D823D823D823D823B71BB71BB71BB71B4F
:10552800B71BB71BB71BB71B971B971BB71BB71B23
:10553800B71BB71BB71BB71BD823D823D823D8232F
:10554800D823D823F823F823F923F923F823F823B9
:105558001824192419241924192C192C1A2C1A2442
:1055680039243A2C1A2C1934F833574CD14B2D4B7B
:105578001184118CAF7BCD4A96433B3C7A2C9A2CF4
:105588009A2C7B2C7D3C5C347B3C7B345C3C5C3CC7
:10559800793CF62BD10AF6337A449A4C9A4C794CDA
:1055A800383CD212B52BB94C9A3C9B3C9B449B444B
:1055B800BB3CBB349B349B34BB349B349B3C7A3C14
:1055C800783CF55412864F962D8E4D962C964C9E0F
:1055D8004B9E4A9E4B9E4B964B9E4B9E4B964B9E8C
:1055E8004B9E4B9E4C962B964B9E299E699E699E80
:1055F80049966D96926DF233172CFA23F9231924E4
:10560800F923F923F823F823F823F823D823D823F8
:10561800D823D823D823D823B71BB71BB71BB71B4E
:10562800B71BB71B971B971B971B971BB71BB71B62
:10563800B71BB71BB71BB71BD823D823D823D8232E
:10564800D823D823F823F823F823F823F923F923B8
:10565800192419241924192419241924192C192C4A
:10566800192C3A2C3A2C3A2C1A2C393CB3434B2A95
:105678006B42ED5A8B424C2AF84B5B3C7A2C9A24AD
:10568800BA2C7B2C5C3C3C3C7B349B3C5D3C5C44B6
:105698009A4CF633D53399449B3C9C3C7C3C9B3CD0
:1056A800BB441734F63BD9549A3CBB3C9B447B44DF
:1056B8009C3C9C347C3C9C3CBB3CBB349B3C7A343F
:1056C800793CD554118E6D9E4C966C9E4B9E4BA684
:1056D8004A9E499E6B9E6B9E2A9E4A9E4A964B9E68
:1056E8004BA62BA66C9E6B964B9E2A9E499E49966E
:1056F80049968E969275F233F733F92B19241924AB
:105708001924F923F82BF82BF823F823D823D823C6
:10571800D823D823D823D823B71BB71BB71BB71B4D
:10572800B71BB71B971B971B971BB71BB71BB71B41
:10573800B71BB71BB71BB71BD823D823D823D8232D
:10574800D823D823F823F823F823F823F923F923B7
:1057580019241924192419241924192C192C192C41
:10576800192C3A2C3A2C3A2C3A34393C373C122B27
:105778002C220B222C1A723B39445A3C5A349A2C4C
:105788009A2C9A2C5B3C7C3C7A347B345D3C3C3CC8
:105798007A44952B59449A447B3C9D3C9D3C7C3CE7
:1057A8009C449B4C962B7A4C9C3C9D3C9C447C4452
:1057B8009D3C9D3C9D3C9E3C7D349D349C347B3C73
:1057C8005B3CB64C118E2C962B964C9E2B9E2B9E9A
:1057D8002A9E4A9E4B9E4B9E2BA62BA62BA62A9E04
:1057E80029A629A62A966B962B9E2B9E4B9E4B96F6
:1057F8006C969196B375F23B1734F92B182418243C
:105808001924F923F923D92BF823F823D823D823EB
:10581800D823D823D823D823B71BB71BB71BB71B4C
:10582800B71BB71BB71B971B971BB71BB71BB71B20
:10583800B71BB71BB71BB71BD823D823D823D8232C
:10584800D823D823F823F823F823F823F923F923B6
:1058580019241924192419241924192C192C192C40
:105868003A2C3A2C3A2C3A2C3A2C1934393C373CFD
:10587800943BF02A7333794C393C39347A3C793487
:1058880078347734363C563C963C973C79445844B7
:105898003544922B764C774498449944B9447944DA
:1058A8007844984C7333153CB944B93C99447944CD
:1058B80099449A3C7A447B3C7C349D3C9C349C3C87
:1058C8007B3CB74C328E4D964D964D962D960D9647
:1058D8004E9E4E9E2D962C9E0BA62BA62BA62AA638
:1058E8004AAE4BA62D966F96709650967096508E2F
:1058F800318634865665153C172C192C1824182423
:105908001924F923F92BD92BF823F823D823D823E2
:10591800D823D823D823D823B71BB71BB71BB71B4B
:10592800B71BB71BB71B971B971BB71BB71BB71B1F
:10593800B71BB71BB71BD823D823D823D823D82302
:10594800D823F823F823F823F823F823F923192474
:105958001924192419241924192C192C192C192C37
:105968003A2C3A2C3A2C3A2C3A2C192C583C17340D
:1059780059445A447B4C3A3C9A4438347A3C783CF3
:10598800B544755D525D515D7165105D336D136D84
:10599800D0648F5C326D1265526D3265335D125D75
:1059A80012653375B0647054545D3455135D135DDE
:1059B80033551355F354B54C99449B3C7C3C7C3C83
:1059C8007A3CD64C52868E8E8F8E8F8E518E118E4B
:1059D800328E328E10866F9E2C9E2AA64BA62B9E48
:1059E8002CA6EE95316D34651555F44CD44CD44C39
:1059F80094449544583CF82B192C1924182418243D
:105A08001824F82BF82BD82BF823F823D823D823DD
:105A1800D823D823D823D823D823B71BB71BB71B21
:105A2800B71BB71BB71B971BB71BB71BB71BB71BFE
:105A3800B71BB71BB71BD823D823D823D823D82301
:105A4800D823F823F823F823F823F923F923192472
:105A58001924192419241924192C192C192C192C36
:105A68003A2C3A2C3A2C3A2C3B2C392C5955553C8B
:105A78001634593C383C583C5A55773C7A3C573C8C
:105A8800145D7586718E6F8E8F964F8E719E519EA6
:105A9800109E309E509651965096508E718E518E13
:105AA8005196319651A61096728E7286318E518E0D
:105AB800728E52863286147EF654793C7B3C9C3C2E
:105AC8009B3C97447365906D4F5D505D325DD25C31
:105AD800D354D154EF5C0F864C9E4A9E4B9E2B9616
:105AE8002D9E6F7D3244F533362C1624172C172C37
:105AF800F72BF82B192C3A2C1A241A2418241824BA
:105B08001824F82BF82BD82BF823F823D823D823DC
:105B1800D823D823D823D823D823B71BB71BB71B20
:105B2800B71BB71BB71BB71BB71BB71BB71BB71BDD
:105B3800B71BB71BD823D823D823D823D823D823D7
:105B4800D823F823F823F823F823F923F923192471
:105B58001924192419241924192C192C192C3A2C14
:105B68003A2C3A2C3A2C3A2C3B2C372CD66D7365B0
:105B78007344333C72445565D86D963C593C373C68
:105B8800F25C52964E964B964C964B966C9E2C9E7B
:105B98002C9E4C9E2C964C962D964D966D964D9619
:105BA8002D960C964C9E4C9E4C964C964C964D9E23
:105BB8004E9E6E966D96508E936D96449B3C9D3C82
:105BC8009C347A3C784457447644763C7844583C34
:105BD800573C543CB144117E4C8E4A966B9E4B9672
:105BE8008D9ED17D753C382C582C582C393439343D
:105BF8001934F92BF92BF92B192C192418241824EA
:105C08001824F923F923F823F823F823D823D823D1
:105C1800D823D823D823D823D823D823B71BB71BF6
:105C2800B71BB71BB71BB71BB71BB71BB71BB71BDC
:105C3800B71BB71BD823D823D823D823D823D823D6
:105C4800D823F823F823F823F823F923F923192470
:105C58001924192419241924192C192C192C3A2C13
:105C68003A2C3A2C3A2C3A2C3B343634B26D928E7C
:105C7800F37D726DD0757386D56D743C793C57444D
:105C8800F26431962C964B9E2A9E6A9E6A9E2996AD
:105C98006BA62A9E4A966A9E4B9E4B9E4A962A96C9
:105CA8006B9E6BA6299E699E699E499E4A9E4AA63E
:105CB8002B9E2B9E4B9E4E96538ED4549A447D34E5
:105CC8009C349C3C5C3C5C447C3C5B345C3C5C347D
:105CD8007B3C7834B23C12766E964B9E6B9E4C960B
:105CE8006D96D17D563C3A2C392C392C392C192CEF
:105CF800192C1A2C192C192C192C1924182418248D
:105D080019241924F923F923F823F823D823D823AD
:105D1800D823D823D823D823D823D823B71BB71BF5
:105D2800B71BB71BB71BB71B971BB71BB71BB71BFB
:105D3800B71BB71BB71BD823D823D823D823D823FE
:105D4800D823F823F823F823F9231924192419242C
